{
  "contractName": "SimpleStorage",
  "abi": [
    {
      "inputs": [],
      "stateMutability": "nonpayable",
      "type": "constructor"
    },
    {
      "anonymous": false,
      "inputs": [
        {
          "indexed": false,
          "internalType": "address",
          "name": "author",
          "type": "address"
        },
        {
          "indexed": false,
          "internalType": "string",
          "name": "fileHash",
          "type": "string"
        },
        {
          "indexed": false,
          "internalType": "uint256",
          "name": "timestamp",
          "type": "uint256"
        },
        {
          "indexed": false,
          "internalType": "uint256",
          "name": "fileSize",
          "type": "uint256"
        },
        {
          "indexed": false,
          "internalType": "string",
          "name": "fileExtension",
          "type": "string"
        }
      ],
      "name": "FileCertified",
      "type": "event"
    },
    {
      "inputs": [
        {
          "internalType": "address",
          "name": "",
          "type": "address"
        }
      ],
      "name": "user_roles",
      "outputs": [
        {
          "internalType": "string",
          "name": "",
          "type": "string"
        }
      ],
      "stateMutability": "view",
      "type": "function",
      "constant": true
    },
    {
      "inputs": [
        {
          "internalType": "address",
          "name": "issuer_address",
          "type": "address"
        }
      ],
      "name": "addIssuer",
      "outputs": [],
      "stateMutability": "nonpayable",
      "type": "function"
    },
    {
      "inputs": [
        {
          "internalType": "address",
          "name": "issuer_address",
          "type": "address"
        }
      ],
      "name": "removeIssuer",
      "outputs": [],
      "stateMutability": "nonpayable",
      "type": "function"
    },
    {
      "inputs": [
        {
          "internalType": "address",
          "name": "candidate_address",
          "type": "address"
        },
        {
          "internalType": "string",
          "name": "candidate_name",
          "type": "string"
        },
        {
          "internalType": "uint256",
          "name": "fileSize",
          "type": "uint256"
        },
        {
          "internalType": "string",
          "name": "issuer_institution",
          "type": "string"
        },
        {
          "internalType": "string",
          "name": "issuer_name",
          "type": "string"
        },
        {
          "internalType": "string",
          "name": "fileHash",
          "type": "string"
        },
        {
          "internalType": "string",
          "name": "fileName",
          "type": "string"
        },
        {
          "internalType": "string",
          "name": "fileExtension",
          "type": "string"
        }
      ],
      "name": "certifyFile",
      "outputs": [],
      "stateMutability": "payable",
      "type": "function",
      "payable": true
    },
    {
      "inputs": [
        {
          "internalType": "string",
          "name": "fileHash",
          "type": "string"
        },
        {
          "internalType": "address",
          "name": "candidate_address",
          "type": "address"
        }
      ],
      "name": "verifyFile",
      "outputs": [
        {
          "components": [
            {
              "components": [
                {
                  "internalType": "address",
                  "name": "issuer_address",
                  "type": "address"
                },
                {
                  "internalType": "string",
                  "name": "issuer_institution",
                  "type": "string"
                },
                {
                  "internalType": "string",
                  "name": "issuer_name",
                  "type": "string"
                }
              ],
              "internalType": "struct SimpleStorage.CertificateIssuerStructure",
              "name": "issuer",
              "type": "tuple"
            },
            {
              "components": [
                {
                  "internalType": "address",
                  "name": "candidate_address",
                  "type": "address"
                },
                {
                  "internalType": "string",
                  "name": "candidate_name",
                  "type": "string"
                }
              ],
              "internalType": "struct SimpleStorage.CandidateStructure",
              "name": "candidate",
              "type": "tuple"
            },
            {
              "internalType": "string",
              "name": "fileHash",
              "type": "string"
            },
            {
              "internalType": "string",
              "name": "fileName",
              "type": "string"
            },
            {
              "internalType": "uint256",
              "name": "timestamp",
              "type": "uint256"
            },
            {
              "internalType": "uint256",
              "name": "fileSize",
              "type": "uint256"
            },
            {
              "internalType": "string",
              "name": "fileExtension",
              "type": "string"
            }
          ],
          "internalType": "struct SimpleStorage.FileCertificate",
          "name": "",
          "type": "tuple"
        },
        {
          "internalType": "bool",
          "name": "",
          "type": "bool"
        }
      ],
      "stateMutability": "view",
      "type": "function",
      "constant": true
    }
  ],
  "bytecode": "0x60806040523480156200001157600080fd5b506040518060400160405280600581526020017f61646d696e000000000000000000000000000000000000000000000000000000815250600260003373ffffffffffffffffffffffffffffffffffffffff1673ffffffffffffffffffffffffffffffffffffffff168152602001908152602001600020908162000095919062000356565b50336000806101000a81548173ffffffffffffffffffffffffffffffffffffffff021916908373ffffffffffffffffffffffffffffffffffffffff1602179055506200043d565b600081519050919050565b7f4e487b7100000000000000000000000000000000000000000000000000000000600052604160045260246000fd5b7f4e487b7100000000000000000000000000000000000000000000000000000000600052602260045260246000fd5b600060028204905060018216806200015e57607f821691505b60208210810362000174576200017362000116565b5b50919050565b60008190508160005260206000209050919050565b60006020601f8301049050919050565b600082821b905092915050565b600060088302620001de7fffffffffffffffffffffffffffffffffffffffffffffffffffffffffffffffff826200019f565b620001ea86836200019f565b95508019841693508086168417925050509392505050565b6000819050919050565b6000819050919050565b600062000237620002316200022b8462000202565b6200020c565b62000202565b9050919050565b6000819050919050565b620002538362000216565b6200026b62000262826200023e565b848454620001ac565b825550505050565b600090565b6200028262000273565b6200028f81848462000248565b505050565b5b81811015620002b757620002ab60008262000278565b60018101905062000295565b5050565b601f8211156200030657620002d0816200017a565b620002db846200018f565b81016020851015620002eb578190505b62000303620002fa856200018f565b83018262000294565b50505b505050565b600082821c905092915050565b60006200032b600019846008026200030b565b1980831691505092915050565b600062000346838362000318565b9150826002028217905092915050565b6200036182620000dc565b67ffffffffffffffff8111156200037d576200037c620000e7565b5b62000389825462000145565b62000396828285620002bb565b600060209050601f831160018114620003ce5760008415620003b9578287015190505b620003c5858262000338565b86555062000435565b601f198416620003de866200017a565b60005b828110156200040857848901518255600182019150602085019450602081019050620003e1565b8683101562000428578489015162000424601f89168262000318565b8355505b6001600288020188555050505b505050505050565b611c02806200044d6000396000f3fe60806040526004361061004a5760003560e01c806320694db01461004f57806347bc709314610078578063ddad687a146100a1578063eea9211c146100bd578063f8b00b4c146100fb575b600080fd5b34801561005b57600080fd5b5061007660048036038101906100719190610f48565b610138565b005b34801561008457600080fd5b5061009f600480360381019061009a9190610f48565b610315565b005b6100bb60048036038101906100b691906110f1565b6104f2565b005b3480156100c957600080fd5b506100e460048036038101906100df919061124f565b61083e565b6040516100f29291906114af565b60405180910390f35b34801561010757600080fd5b50610122600480360381019061011d9190610f48565b610d86565b60405161012f9190611529565b60405180910390f35b60008054906101000a900473ffffffffffffffffffffffffffffffffffffffff1673ffffffffffffffffffffffffffffffffffffffff163373ffffffffffffffffffffffffffffffffffffffff16146101c6576040517f08c379a00000000000000000000000000000000000000000000000000000000081526004016101bd90611597565b60405180910390fd5b6040516020016101d59061160e565b60405160208183030381529060405280519060200120600260003373ffffffffffffffffffffffffffffffffffffffff1673ffffffffffffffffffffffffffffffffffffffff16815260200190815260200160002060405160200161023a919061171b565b6040516020818303038152906040528051906020012003610290576040517f08c379a00000000000000000000000000000000000000000000000000000000081526004016102879061177e565b60405180910390fd5b6040518060400160405280600681526020017f6973737565720000000000000000000000000000000000000000000000000000815250600260008373ffffffffffffffffffffffffffffffffffffffff1673ffffffffffffffffffffffffffffffffffffffff16815260200190815260200160002090816103119190611935565b5050565b60008054906101000a900473ffffffffffffffffffffffffffffffffffffffff1673ffffffffffffffffffffffffffffffffffffffff163373ffffffffffffffffffffffffffffffffffffffff16146103a3576040517f08c379a000000000000000000000000000000000000000000000000000000000815260040161039a90611597565b60405180910390fd5b6040516020016103b29061160e565b60405160208183030381529060405280519060200120600260003373ffffffffffffffffffffffffffffffffffffffff1673ffffffffffffffffffffffffffffffffffffffff168152602001908152602001600020604051602001610417919061171b565b604051602081830303815290604052805190602001201461046d576040517f08c379a000000000000000000000000000000000000000000000000000000000815260040161046490611a53565b60405180910390fd5b6040518060400160405280600481526020017f7573657200000000000000000000000000000000000000000000000000000000815250600260008373ffffffffffffffffffffffffffffffffffffffff1673ffffffffffffffffffffffffffffffffffffffff16815260200190815260200160002090816104ee9190611935565b5050565b6040516020016105019061160e565b60405160208183030381529060405280519060200120600260003373ffffffffffffffffffffffffffffffffffffffff1673ffffffffffffffffffffffffffffffffffffffff168152602001908152602001600020604051602001610566919061171b565b60405160208183030381529060405280519060200120146105bc576040517f08c379a00000000000000000000000000000000000000000000000000000000081526004016105b390611ae5565b60405180910390fd5b600060405180604001604052808a73ffffffffffffffffffffffffffffffffffffffff168152602001898152509050600060405180606001604052803373ffffffffffffffffffffffffffffffffffffffff16815260200187815260200188815250905060006040518060e001604052808381526020018481526020018781526020018681526020014281526020018a815260200185815250905080600160008d73ffffffffffffffffffffffffffffffffffffffff1673ffffffffffffffffffffffffffffffffffffffff168152602001908152602001600020876040516106a59190611b36565b908152602001604051809103902060008201518160000160008201518160000160006101000a81548173ffffffffffffffffffffffffffffffffffffffff021916908373ffffffffffffffffffffffffffffffffffffffff16021790555060208201518160010190816107189190611935565b50604082015181600201908161072e9190611935565b50505060208201518160030160008201518160000160006101000a81548173ffffffffffffffffffffffffffffffffffffffff021916908373ffffffffffffffffffffffffffffffffffffffff16021790555060208201518160010190816107969190611935565b50505060408201518160050190816107ae9190611935565b5060608201518160060190816107c49190611935565b506080820151816007015560a0820151816008015560c08201518160090190816107ee9190611935565b509050507f7233f1f5a296ceee040647096ea8b83745c99e3a2e329004608ae07ac3b9ea2c3387428c88604051610829959493929190611b6b565b60405180910390a15050505050505050505050565b610846610e26565b600080600160008573ffffffffffffffffffffffffffffffffffffffff1673ffffffffffffffffffffffffffffffffffffffff168152602001908152602001600020856040516108969190611b36565b90815260200160405180910390206040518060e0016040529081600082016040518060600160405290816000820160009054906101000a900473ffffffffffffffffffffffffffffffffffffffff1673ffffffffffffffffffffffffffffffffffffffff1673ffffffffffffffffffffffffffffffffffffffff16815260200160018201805461092590611652565b80601f016020809104026020016040519081016040528092919081815260200182805461095190611652565b801561099e5780601f106109735761010080835404028352916020019161099e565b820191906000526020600020905b81548152906001019060200180831161098157829003601f168201915b505050505081526020016002820180546109b790611652565b80601f01602080910402602001604051908101604052809291908181526020018280546109e390611652565b8015610a305780601f10610a0557610100808354040283529160200191610a30565b820191906000526020600020905b815481529060010190602001808311610a1357829003601f168201915b5050505050815250508152602001600382016040518060400160405290816000820160009054906101000a900473ffffffffffffffffffffffffffffffffffffffff1673ffffffffffffffffffffffffffffffffffffffff1673ffffffffffffffffffffffffffffffffffffffff168152602001600182018054610ab390611652565b80601f0160208091040260200160405190810160405280929190818152602001828054610adf90611652565b8015610b2c5780601f10610b0157610100808354040283529160200191610b2c565b820191906000526020600020905b815481529060010190602001808311610b0f57829003601f168201915b5050505050815250508152602001600582018054610b4990611652565b80601f0160208091040260200160405190810160405280929190818152602001828054610b7590611652565b8015610bc25780601f10610b9757610100808354040283529160200191610bc2565b820191906000526020600020905b815481529060010190602001808311610ba557829003601f168201915b50505050508152602001600682018054610bdb90611652565b80601f0160208091040260200160405190810160405280929190818152602001828054610c0790611652565b8015610c545780601f10610c2957610100808354040283529160200191610c54565b820191906000526020600020905b815481529060010190602001808311610c3757829003601f168201915b505050505081526020016007820154815260200160088201548152602001600982018054610c8190611652565b80601f0160208091040260200160405190810160405280929190818152602001828054610cad90611652565b8015610cfa5780601f10610ccf57610100808354040283529160200191610cfa565b820191906000526020600020905b815481529060010190602001808311610cdd57829003601f168201915b5050505050815250509050600080600160008773ffffffffffffffffffffffffffffffffffffffff1673ffffffffffffffffffffffffffffffffffffffff16815260200190815260200160002087604051610d559190611b36565b90815260200160405180910390206005018054610d7190611652565b90501415905081819350935050509250929050565b60026020528060005260406000206000915090508054610da590611652565b80601f0160208091040260200160405190810160405280929190818152602001828054610dd190611652565b8015610e1e5780601f10610df357610100808354040283529160200191610e1e565b820191906000526020600020905b815481529060010190602001808311610e0157829003601f168201915b505050505081565b6040518060e00160405280610e39610e6f565b8152602001610e46610ea6565b815260200160608152602001606081526020016000815260200160008152602001606081525090565b6040518060600160405280600073ffffffffffffffffffffffffffffffffffffffff16815260200160608152602001606081525090565b6040518060400160405280600073ffffffffffffffffffffffffffffffffffffffff168152602001606081525090565b6000604051905090565b600080fd5b600080fd5b600073ffffffffffffffffffffffffffffffffffffffff82169050919050565b6000610f1582610eea565b9050919050565b610f2581610f0a565b8114610f3057600080fd5b50565b600081359050610f4281610f1c565b92915050565b600060208284031215610f5e57610f5d610ee0565b5b6000610f6c84828501610f33565b91505092915050565b600080fd5b600080fd5b6000601f19601f8301169050919050565b7f4e487b7100000000000000000000000000000000000000000000000000000000600052604160045260246000fd5b610fc882610f7f565b810181811067ffffffffffffffff82111715610fe757610fe6610f90565b5b80604052505050565b6000610ffa610ed6565b90506110068282610fbf565b919050565b600067ffffffffffffffff82111561102657611025610f90565b5b61102f82610f7f565b9050602081019050919050565b82818337600083830152505050565b600061105e6110598461100b565b610ff0565b90508281526020810184848401111561107a57611079610f7a565b5b61108584828561103c565b509392505050565b600082601f8301126110a2576110a1610f75565b5b81356110b284826020860161104b565b91505092915050565b6000819050919050565b6110ce816110bb565b81146110d957600080fd5b50565b6000813590506110eb816110c5565b92915050565b600080600080600080600080610100898b03121561111257611111610ee0565b5b60006111208b828c01610f33565b985050602089013567ffffffffffffffff81111561114157611140610ee5565b5b61114d8b828c0161108d565b975050604061115e8b828c016110dc565b965050606089013567ffffffffffffffff81111561117f5761117e610ee5565b5b61118b8b828c0161108d565b955050608089013567ffffffffffffffff8111156111ac576111ab610ee5565b5b6111b88b828c0161108d565b94505060a089013567ffffffffffffffff8111156111d9576111d8610ee5565b5b6111e58b828c0161108d565b93505060c089013567ffffffffffffffff81111561120657611205610ee5565b5b6112128b828c0161108d565b92505060e089013567ffffffffffffffff81111561123357611232610ee5565b5b61123f8b828c0161108d565b9150509295985092959890939650565b6000806040838503121561126657611265610ee0565b5b600083013567ffffffffffffffff81111561128457611283610ee5565b5b6112908582860161108d565b92505060206112a185828601610f33565b9150509250929050565b6112b481610f0a565b82525050565b600081519050919050565b600082825260208201905092915050565b60005b838110156112f45780820151818401526020810190506112d9565b60008484015250505050565b600061130b826112ba565b61131581856112c5565b93506113258185602086016112d6565b61132e81610f7f565b840191505092915050565b600060608301600083015161135160008601826112ab565b50602083015184820360208601526113698282611300565b915050604083015184820360408601526113838282611300565b9150508091505092915050565b60006040830160008301516113a860008601826112ab565b50602083015184820360208601526113c08282611300565b9150508091505092915050565b6113d6816110bb565b82525050565b600060e08301600083015184820360008601526113f98282611339565b915050602083015184820360208601526114138282611390565b9150506040830151848203604086015261142d8282611300565b915050606083015184820360608601526114478282611300565b915050608083015161145c60808601826113cd565b5060a083015161146f60a08601826113cd565b5060c083015184820360c08601526114878282611300565b9150508091505092915050565b60008115159050919050565b6114a981611494565b82525050565b600060408201905081810360008301526114c981856113dc565b90506114d860208301846114a0565b9392505050565b600082825260208201905092915050565b60006114fb826112ba565b61150581856114df565b93506115158185602086016112d6565b61151e81610f7f565b840191505092915050565b6000602082019050818103600083015261154381846114f0565b905092915050565b7f596f752063616e27742061646420697373756572000000000000000000000000600082015250565b60006115816014836114df565b915061158c8261154b565b602082019050919050565b600060208201905081810360008301526115b081611574565b9050919050565b600081905092915050565b7f6973737565720000000000000000000000000000000000000000000000000000600082015250565b60006115f86006836115b7565b9150611603826115c2565b600682019050919050565b6000611619826115eb565b9150819050919050565b7f4e487b7100000000000000000000000000000000000000000000000000000000600052602260045260246000fd5b6000600282049050600182168061166a57607f821691505b60208210810361167d5761167c611623565b5b50919050565b60008190508160005260206000209050919050565b600081546116a581611652565b6116af81866115b7565b945060018216600081146116ca57600181146116df57611712565b60ff1983168652811515820286019350611712565b6116e885611683565b60005b8381101561170a578154818901526001820191506020810190506116eb565b838801955050505b50505092915050565b60006117278284611698565b915081905092915050565b7f69737375657220697320616c72656164792070726573656e7400000000000000600082015250565b60006117686019836114df565b915061177382611732565b602082019050919050565b600060208201905081810360008301526117978161175b565b9050919050565b60006020601f8301049050919050565b600082821b905092915050565b6000600883026117eb7fffffffffffffffffffffffffffffffffffffffffffffffffffffffffffffffff826117ae565b6117f586836117ae565b95508019841693508086168417925050509392505050565b6000819050919050565b600061183261182d611828846110bb565b61180d565b6110bb565b9050919050565b6000819050919050565b61184c83611817565b61186061185882611839565b8484546117bb565b825550505050565b600090565b611875611868565b611880818484611843565b505050565b5b818110156118a45761189960008261186d565b600181019050611886565b5050565b601f8211156118e9576118ba81611683565b6118c38461179e565b810160208510156118d2578190505b6118e66118de8561179e565b830182611885565b50505b505050565b600082821c905092915050565b600061190c600019846008026118ee565b1980831691505092915050565b600061192583836118fb565b9150826002028217905092915050565b61193e826112ba565b67ffffffffffffffff81111561195757611956610f90565b5b6119618254611652565b61196c8282856118a8565b600060209050601f83116001811461199f576000841561198d578287015190505b6119978582611919565b8655506119ff565b601f1984166119ad86611683565b60005b828110156119d5578489015182556001820191506020850194506020810190506119b0565b868310156119f257848901516119ee601f8916826118fb565b8355505b6001600288020188555050505b505050505050565b7f54686520706572736f6e206973206e6f74206973737565720000000000000000600082015250565b6000611a3d6018836114df565b9150611a4882611a07565b602082019050919050565b60006020820190508181036000830152611a6c81611a30565b9050919050565b7f596f752063616e2774206365727469667920746865206365727469666963617460008201527f6500000000000000000000000000000000000000000000000000000000000000602082015250565b6000611acf6021836114df565b9150611ada82611a73565b604082019050919050565b60006020820190508181036000830152611afe81611ac2565b9050919050565b6000611b10826112ba565b611b1a81856115b7565b9350611b2a8185602086016112d6565b80840191505092915050565b6000611b428284611b05565b915081905092915050565b611b5681610f0a565b82525050565b611b65816110bb565b82525050565b600060a082019050611b806000830188611b4d565b8181036020830152611b9281876114f0565b9050611ba16040830186611b5c565b611bae6060830185611b5c565b8181036080830152611bc081846114f0565b9050969550505050505056fea2646970667358221220d5a05fe1b700ab6e8bc3387c80e6fabae7cb5e632fbbadf1fedf082849c0fe1e64736f6c63430008120033",
  "immutableReferences": {},
  "source": "// SPDX-License-Identifier: MIT\n\npragma solidity >=0.5.0 <0.9.0;\n\ncontract SimpleStorage {\n    event FileCertified(\n        address author,\n        string fileHash,\n        uint256 timestamp,\n        uint256 fileSize,\n        string fileExtension\n    );\n\n    // contract deployer (application owner)\n    address owner;\n\n    // sturcture describing issuer\n    struct CertificateIssuerStructure {\n        address issuer_address;\n        string issuer_institution;\n        string issuer_name;\n    }\n\n    // structure describing candidate\n    struct CandidateStructure {\n        address candidate_address;\n        string candidate_name;\n    }\n\n    //structure describing file certificate\n    struct FileCertificate {\n        CertificateIssuerStructure issuer;\n        CandidateStructure candidate;\n        string fileHash;\n        string fileName;\n        uint256 timestamp;\n        uint256 fileSize;\n        string fileExtension;\n    }\n\n    //mapping the file certificates by hash\n    mapping(address => mapping(string => FileCertificate)) fileCertificatesMap;\n\n    // mapping user roles [admin , isssuer , candidate]\n    mapping(address => string) public user_roles;\n\n    constructor() {\n        user_roles[msg.sender] = \"admin\";\n        owner = msg.sender;\n    }\n\n    function addIssuer(address issuer_address) public {\n        // check if the person is owner\n        require(msg.sender == owner, \"You can't add issuer\");\n        // check if the issuer is already present\n        require(\n            keccak256(abi.encodePacked(user_roles[msg.sender])) !=\n                keccak256(abi.encodePacked(\"issuer\")),\n            \"issuer is already present\"\n        );\n\n        user_roles[issuer_address] = \"issuer\";\n    }\n\n    function removeIssuer(address issuer_address) public {\n        // check if the person is owner\n        require(msg.sender == owner, \"You can't add issuer\");\n        // check if the issuer is already present\n        require(\n            keccak256(abi.encodePacked(user_roles[msg.sender])) ==\n                keccak256(abi.encodePacked(\"issuer\")),\n            \"The person is not issuer\"\n        );\n\n        user_roles[issuer_address] = \"user\";\n    }\n\n    //function that allows issuer to certify a file\n    function certifyFile(\n        address candidate_address,\n        string memory candidate_name,\n        uint256 fileSize,\n        string memory issuer_institution,\n        string memory issuer_name,\n        string memory fileHash,\n        string memory fileName,\n        string memory fileExtension\n    ) public payable {\n        // check if the person is issuer\n        require(\n            keccak256(abi.encodePacked(user_roles[msg.sender])) ==\n                keccak256(abi.encodePacked(\"issuer\")),\n            \"You can't certify the certificate\"\n        );\n\n        CandidateStructure memory candidate = CandidateStructure(\n            candidate_address,\n            candidate_name\n        );\n        CertificateIssuerStructure memory issuer = CertificateIssuerStructure(\n            msg.sender,\n            issuer_name,\n            issuer_institution\n        );\n        FileCertificate memory newFileCertificate = FileCertificate(\n            issuer,\n            candidate,\n            fileHash,\n            fileName,\n            block.timestamp,\n            fileSize,\n            fileExtension\n        );\n        fileCertificatesMap[candidate_address][fileHash] = newFileCertificate;\n        emit FileCertified(\n            msg.sender,\n            fileHash,\n            block.timestamp,\n            fileSize,\n            fileExtension\n        );\n    }\n\n    // verification of certificate\n    function verifyFile(\n        string memory fileHash,\n        address candidate_address\n    ) public view returns (FileCertificate memory, bool) {\n        FileCertificate memory fileCertificate = fileCertificatesMap[\n            candidate_address\n        ][fileHash];\n        // return's false of certificate is not verified else\n        bool exists = (bytes(\n            fileCertificatesMap[candidate_address][fileHash].fileHash\n        ).length != 0);\n        return (fileCertificate, exists);\n    }\n}\n\n",
  "sourcePath": "/Users/amitsamui/Desktop/Projects/Blockchain project 1/parikshan-frontend-app/truffle/contracts/SimpleStorage.sol",
  "compiler": {
    "name": "solc",
    "version": "0.8.18+commit.87f61d96.Emscripten.clang"
  },
  "schemaVersion": "3.4.14",
  "updatedAt": "2023-07-18T13:57:39.438Z",
  "networkType": "ethereum",
  "devdoc": {
    "kind": "dev",
    "methods": {},
    "version": 1
  },
  "userdoc": {
    "kind": "user",
    "methods": {},
    "version": 1
  }
}