{
  "contractName": "verifyCertificate",
  "abi": [
    {
      "inputs": [],
      "stateMutability": "nonpayable",
      "type": "constructor"
    },
    {
      "anonymous": false,
      "inputs": [
        {
          "indexed": false,
          "internalType": "address",
          "name": "author",
          "type": "address"
        },
        {
          "indexed": false,
          "internalType": "string",
          "name": "fileHash",
          "type": "string"
        },
        {
          "indexed": false,
          "internalType": "uint256",
          "name": "timestamp",
          "type": "uint256"
        },
        {
          "indexed": false,
          "internalType": "uint256",
          "name": "fileSize",
          "type": "uint256"
        },
        {
          "indexed": false,
          "internalType": "string",
          "name": "fileExtension",
          "type": "string"
        }
      ],
      "name": "FileCertified",
      "type": "event"
    },
    {
      "inputs": [
        {
          "internalType": "address",
          "name": "",
          "type": "address"
        },
        {
          "internalType": "string",
          "name": "",
          "type": "string"
        }
      ],
      "name": "fileCertificatesMap",
      "outputs": [
        {
          "components": [
            {
              "internalType": "address",
              "name": "issuer_address",
              "type": "address"
            },
            {
              "internalType": "string",
              "name": "issuer_institution",
              "type": "string"
            },
            {
              "internalType": "string",
              "name": "issuer_name",
              "type": "string"
            }
          ],
          "internalType": "struct verifyCertificate.CertificateIssuerStructure",
          "name": "issuer",
          "type": "tuple"
        },
        {
          "components": [
            {
              "internalType": "address",
              "name": "candidate_address",
              "type": "address"
            },
            {
              "internalType": "string",
              "name": "candidate_name",
              "type": "string"
            }
          ],
          "internalType": "struct verifyCertificate.CandidateStructure",
          "name": "candidate",
          "type": "tuple"
        },
        {
          "internalType": "string",
          "name": "fileHash",
          "type": "string"
        },
        {
          "internalType": "string",
          "name": "fileName",
          "type": "string"
        },
        {
          "internalType": "uint256",
          "name": "timestamp",
          "type": "uint256"
        },
        {
          "internalType": "uint256",
          "name": "fileSize",
          "type": "uint256"
        },
        {
          "internalType": "string",
          "name": "fileExtension",
          "type": "string"
        }
      ],
      "stateMutability": "view",
      "type": "function"
    },
    {
      "inputs": [
        {
          "internalType": "address",
          "name": "",
          "type": "address"
        }
      ],
      "name": "user_roles",
      "outputs": [
        {
          "internalType": "string",
          "name": "",
          "type": "string"
        }
      ],
      "stateMutability": "view",
      "type": "function"
    },
    {
      "inputs": [
        {
          "internalType": "address",
          "name": "candidate_address",
          "type": "address"
        }
      ],
      "name": "getCertificates",
      "outputs": [
        {
          "components": [
            {
              "components": [
                {
                  "internalType": "address",
                  "name": "issuer_address",
                  "type": "address"
                },
                {
                  "internalType": "string",
                  "name": "issuer_institution",
                  "type": "string"
                },
                {
                  "internalType": "string",
                  "name": "issuer_name",
                  "type": "string"
                }
              ],
              "internalType": "struct verifyCertificate.CertificateIssuerStructure",
              "name": "issuer",
              "type": "tuple"
            },
            {
              "components": [
                {
                  "internalType": "address",
                  "name": "candidate_address",
                  "type": "address"
                },
                {
                  "internalType": "string",
                  "name": "candidate_name",
                  "type": "string"
                }
              ],
              "internalType": "struct verifyCertificate.CandidateStructure",
              "name": "candidate",
              "type": "tuple"
            },
            {
              "internalType": "string",
              "name": "fileHash",
              "type": "string"
            },
            {
              "internalType": "string",
              "name": "fileName",
              "type": "string"
            },
            {
              "internalType": "uint256",
              "name": "timestamp",
              "type": "uint256"
            },
            {
              "internalType": "uint256",
              "name": "fileSize",
              "type": "uint256"
            },
            {
              "internalType": "string",
              "name": "fileExtension",
              "type": "string"
            }
          ],
          "internalType": "struct verifyCertificate.FileCertificate[]",
          "name": "",
          "type": "tuple[]"
        }
      ],
      "stateMutability": "view",
      "type": "function"
    },
    {
      "inputs": [
        {
          "internalType": "address",
          "name": "issuer_address",
          "type": "address"
        }
      ],
      "name": "addIssuer",
      "outputs": [],
      "stateMutability": "nonpayable",
      "type": "function"
    },
    {
      "inputs": [
        {
          "internalType": "address",
          "name": "issuer_address",
          "type": "address"
        }
      ],
      "name": "removeIssuer",
      "outputs": [],
      "stateMutability": "nonpayable",
      "type": "function"
    },
    {
      "inputs": [
        {
          "internalType": "address",
          "name": "candidate_address",
          "type": "address"
        },
        {
          "internalType": "string",
          "name": "candidate_name",
          "type": "string"
        },
        {
          "internalType": "uint256",
          "name": "fileSize",
          "type": "uint256"
        },
        {
          "internalType": "string",
          "name": "issuer_institution",
          "type": "string"
        },
        {
          "internalType": "string",
          "name": "issuer_name",
          "type": "string"
        },
        {
          "internalType": "string",
          "name": "fileHash",
          "type": "string"
        },
        {
          "internalType": "string",
          "name": "fileName",
          "type": "string"
        },
        {
          "internalType": "string",
          "name": "fileExtension",
          "type": "string"
        }
      ],
      "name": "certifyFile",
      "outputs": [],
      "stateMutability": "payable",
      "type": "function"
    },
    {
      "inputs": [
        {
          "internalType": "string",
          "name": "fileHash",
          "type": "string"
        },
        {
          "internalType": "address",
          "name": "candidate_address",
          "type": "address"
        }
      ],
      "name": "verifyFile",
      "outputs": [
        {
          "components": [
            {
              "components": [
                {
                  "internalType": "address",
                  "name": "issuer_address",
                  "type": "address"
                },
                {
                  "internalType": "string",
                  "name": "issuer_institution",
                  "type": "string"
                },
                {
                  "internalType": "string",
                  "name": "issuer_name",
                  "type": "string"
                }
              ],
              "internalType": "struct verifyCertificate.CertificateIssuerStructure",
              "name": "issuer",
              "type": "tuple"
            },
            {
              "components": [
                {
                  "internalType": "address",
                  "name": "candidate_address",
                  "type": "address"
                },
                {
                  "internalType": "string",
                  "name": "candidate_name",
                  "type": "string"
                }
              ],
              "internalType": "struct verifyCertificate.CandidateStructure",
              "name": "candidate",
              "type": "tuple"
            },
            {
              "internalType": "string",
              "name": "fileHash",
              "type": "string"
            },
            {
              "internalType": "string",
              "name": "fileName",
              "type": "string"
            },
            {
              "internalType": "uint256",
              "name": "timestamp",
              "type": "uint256"
            },
            {
              "internalType": "uint256",
              "name": "fileSize",
              "type": "uint256"
            },
            {
              "internalType": "string",
              "name": "fileExtension",
              "type": "string"
            }
          ],
          "internalType": "struct verifyCertificate.FileCertificate",
          "name": "",
          "type": "tuple"
        },
        {
          "internalType": "bool",
          "name": "",
          "type": "bool"
        }
      ],
      "stateMutability": "view",
      "type": "function"
    }
  ],
  "bytecode": "0x60806040523480156200001157600080fd5b506040518060400160405280600581526020017f61646d696e000000000000000000000000000000000000000000000000000000815250600360003373ffffffffffffffffffffffffffffffffffffffff1673ffffffffffffffffffffffffffffffffffffffff168152602001908152602001600020908162000095919062000356565b50336000806101000a81548173ffffffffffffffffffffffffffffffffffffffff021916908373ffffffffffffffffffffffffffffffffffffffff1602179055506200043d565b600081519050919050565b7f4e487b7100000000000000000000000000000000000000000000000000000000600052604160045260246000fd5b7f4e487b7100000000000000000000000000000000000000000000000000000000600052602260045260246000fd5b600060028204905060018216806200015e57607f821691505b60208210810362000174576200017362000116565b5b50919050565b60008190508160005260206000209050919050565b60006020601f8301049050919050565b600082821b905092915050565b600060088302620001de7fffffffffffffffffffffffffffffffffffffffffffffffffffffffffffffffff826200019f565b620001ea86836200019f565b95508019841693508086168417925050509392505050565b6000819050919050565b6000819050919050565b600062000237620002316200022b8462000202565b6200020c565b62000202565b9050919050565b6000819050919050565b620002538362000216565b6200026b62000262826200023e565b848454620001ac565b825550505050565b600090565b6200028262000273565b6200028f81848462000248565b505050565b5b81811015620002b757620002ab60008262000278565b60018101905062000295565b5050565b601f8211156200030657620002d0816200017a565b620002db846200018f565b81016020851015620002eb578190505b62000303620002fa856200018f565b83018262000294565b50505b505050565b600082821c905092915050565b60006200032b600019846008026200030b565b1980831691505092915050565b600062000346838362000318565b9150826002028217905092915050565b6200036182620000dc565b67ffffffffffffffff8111156200037d576200037c620000e7565b5b62000389825462000145565b62000396828285620002bb565b600060209050601f831160018114620003ce5760008415620003b9578287015190505b620003c5858262000338565b86555062000435565b601f198416620003de866200017a565b60005b828110156200040857848901518255600182019150602085019450602081019050620003e1565b8683101562000428578489015162000424601f89168262000318565b8355505b6001600288020188555050505b505050505050565b612ad2806200044d6000396000f3fe6080604052600436106100705760003560e01c8063ddad687a1161004e578063ddad687a1461010a578063eea9211c14610126578063f1c49c6214610164578063f8b00b4c146101a157610070565b806320694db01461007557806347bc70931461009e5780638e634947146100c7575b600080fd5b34801561008157600080fd5b5061009c60048036038101906100979190611afa565b6101de565b005b3480156100aa57600080fd5b506100c560048036038101906100c09190611afa565b6103bb565b005b3480156100d357600080fd5b506100ee60048036038101906100e99190611c6d565b610598565b6040516101019796959493929190611e4e565b60405180910390f35b610124600480360381019061011f9190611f0c565b610a0b565b005b34801561013257600080fd5b5061014d6004803603810190610148919061206a565b610efe565b60405161015b92919061223c565b60405180910390f35b34801561017057600080fd5b5061018b60048036038101906101869190611afa565b611446565b60405161019891906123e6565b60405180910390f35b3480156101ad57600080fd5b506101c860048036038101906101c39190611afa565b611938565b6040516101d59190612408565b60405180910390f35b60008054906101000a900473ffffffffffffffffffffffffffffffffffffffff1673ffffffffffffffffffffffffffffffffffffffff163373ffffffffffffffffffffffffffffffffffffffff161461026c576040517f08c379a000000000000000000000000000000000000000000000000000000000815260040161026390612476565b60405180910390fd5b60405160200161027b906124ed565b60405160208183030381529060405280519060200120600360008373ffffffffffffffffffffffffffffffffffffffff1673ffffffffffffffffffffffffffffffffffffffff1681526020019081526020016000206040516020016102e091906125fa565b6040516020818303038152906040528051906020012003610336576040517f08c379a000000000000000000000000000000000000000000000000000000000815260040161032d9061265d565b60405180910390fd5b6040518060400160405280600681526020017f6973737565720000000000000000000000000000000000000000000000000000815250600360008373ffffffffffffffffffffffffffffffffffffffff1673ffffffffffffffffffffffffffffffffffffffff16815260200190815260200160002090816103b79190612814565b5050565b60008054906101000a900473ffffffffffffffffffffffffffffffffffffffff1673ffffffffffffffffffffffffffffffffffffffff163373ffffffffffffffffffffffffffffffffffffffff1614610449576040517f08c379a000000000000000000000000000000000000000000000000000000000815260040161044090612476565b60405180910390fd5b604051602001610458906124ed565b60405160208183030381529060405280519060200120600360008373ffffffffffffffffffffffffffffffffffffffff1673ffffffffffffffffffffffffffffffffffffffff1681526020019081526020016000206040516020016104bd91906125fa565b6040516020818303038152906040528051906020012014610513576040517f08c379a000000000000000000000000000000000000000000000000000000000815260040161050a90612932565b60405180910390fd5b6040518060400160405280600481526020017f7573657200000000000000000000000000000000000000000000000000000000815250600360008373ffffffffffffffffffffffffffffffffffffffff1673ffffffffffffffffffffffffffffffffffffffff16815260200190815260200160002090816105949190612814565b5050565b60016020528160005260406000208180516020810182018051848252602083016020850120818352809550505050505060009150915050806000016040518060600160405290816000820160009054906101000a900473ffffffffffffffffffffffffffffffffffffffff1673ffffffffffffffffffffffffffffffffffffffff1673ffffffffffffffffffffffffffffffffffffffff16815260200160018201805461064490612531565b80601f016020809104026020016040519081016040528092919081815260200182805461067090612531565b80156106bd5780601f10610692576101008083540402835291602001916106bd565b820191906000526020600020905b8154815290600101906020018083116106a057829003601f168201915b505050505081526020016002820180546106d690612531565b80601f016020809104026020016040519081016040528092919081815260200182805461070290612531565b801561074f5780601f106107245761010080835404028352916020019161074f565b820191906000526020600020905b81548152906001019060200180831161073257829003601f168201915b50505050508152505090806003016040518060400160405290816000820160009054906101000a900473ffffffffffffffffffffffffffffffffffffffff1673ffffffffffffffffffffffffffffffffffffffff1673ffffffffffffffffffffffffffffffffffffffff1681526020016001820180546107ce90612531565b80601f01602080910402602001604051908101604052809291908181526020018280546107fa90612531565b80156108475780601f1061081c57610100808354040283529160200191610847565b820191906000526020600020905b81548152906001019060200180831161082a57829003601f168201915b5050505050815250509080600501805461086090612531565b80601f016020809104026020016040519081016040528092919081815260200182805461088c90612531565b80156108d95780601f106108ae576101008083540402835291602001916108d9565b820191906000526020600020905b8154815290600101906020018083116108bc57829003601f168201915b5050505050908060060180546108ee90612531565b80601f016020809104026020016040519081016040528092919081815260200182805461091a90612531565b80156109675780601f1061093c57610100808354040283529160200191610967565b820191906000526020600020905b81548152906001019060200180831161094a57829003601f168201915b50505050509080600701549080600801549080600901805461098890612531565b80601f01602080910402602001604051908101604052809291908181526020018280546109b490612531565b8015610a015780601f106109d657610100808354040283529160200191610a01565b820191906000526020600020905b8154815290600101906020018083116109e457829003601f168201915b5050505050905087565b604051602001610a1a906124ed565b60405160208183030381529060405280519060200120600360003373ffffffffffffffffffffffffffffffffffffffff1673ffffffffffffffffffffffffffffffffffffffff168152602001908152602001600020604051602001610a7f91906125fa565b6040516020818303038152906040528051906020012014610ad5576040517f08c379a0000000000000000000000000000000000000000000000000000000008152600401610acc906129c4565b60405180910390fd5b600060405180604001604052808a73ffffffffffffffffffffffffffffffffffffffff168152602001898152509050600060405180606001604052803373ffffffffffffffffffffffffffffffffffffffff16815260200187815260200188815250905060006040518060e001604052808381526020018481526020018781526020018681526020014281526020018a815260200185815250905080600160008d73ffffffffffffffffffffffffffffffffffffffff1673ffffffffffffffffffffffffffffffffffffffff16815260200190815260200160002087604051610bbe9190612a15565b908152602001604051809103902060008201518160000160008201518160000160006101000a81548173ffffffffffffffffffffffffffffffffffffffff021916908373ffffffffffffffffffffffffffffffffffffffff1602179055506020820151816001019081610c319190612814565b506040820151816002019081610c479190612814565b50505060208201518160030160008201518160000160006101000a81548173ffffffffffffffffffffffffffffffffffffffff021916908373ffffffffffffffffffffffffffffffffffffffff1602179055506020820151816001019081610caf9190612814565b5050506040820151816005019081610cc79190612814565b506060820151816006019081610cdd9190612814565b506080820151816007015560a0820151816008015560c0820151816009019081610d079190612814565b50905050600260008c73ffffffffffffffffffffffffffffffffffffffff1673ffffffffffffffffffffffffffffffffffffffff1681526020019081526020016000208190806001815401808255809150506001900390600052602060002090600a020160009091909190915060008201518160000160008201518160000160006101000a81548173ffffffffffffffffffffffffffffffffffffffff021916908373ffffffffffffffffffffffffffffffffffffffff1602179055506020820151816001019081610dd99190612814565b506040820151816002019081610def9190612814565b50505060208201518160030160008201518160000160006101000a81548173ffffffffffffffffffffffffffffffffffffffff021916908373ffffffffffffffffffffffffffffffffffffffff1602179055506020820151816001019081610e579190612814565b5050506040820151816005019081610e6f9190612814565b506060820151816006019081610e859190612814565b506080820151816007015560a0820151816008015560c0820151816009019081610eaf9190612814565b5050507f7233f1f5a296ceee040647096ea8b83745c99e3a2e329004608ae07ac3b9ea2c3387428c88604051610ee9959493929190612a3b565b60405180910390a15050505050505050505050565b610f066119d8565b600080600160008573ffffffffffffffffffffffffffffffffffffffff1673ffffffffffffffffffffffffffffffffffffffff16815260200190815260200160002085604051610f569190612a15565b90815260200160405180910390206040518060e0016040529081600082016040518060600160405290816000820160009054906101000a900473ffffffffffffffffffffffffffffffffffffffff1673ffffffffffffffffffffffffffffffffffffffff1673ffffffffffffffffffffffffffffffffffffffff168152602001600182018054610fe590612531565b80601f016020809104026020016040519081016040528092919081815260200182805461101190612531565b801561105e5780601f106110335761010080835404028352916020019161105e565b820191906000526020600020905b81548152906001019060200180831161104157829003601f168201915b5050505050815260200160028201805461107790612531565b80601f01602080910402602001604051908101604052809291908181526020018280546110a390612531565b80156110f05780601f106110c5576101008083540402835291602001916110f0565b820191906000526020600020905b8154815290600101906020018083116110d357829003601f168201915b5050505050815250508152602001600382016040518060400160405290816000820160009054906101000a900473ffffffffffffffffffffffffffffffffffffffff1673ffffffffffffffffffffffffffffffffffffffff1673ffffffffffffffffffffffffffffffffffffffff16815260200160018201805461117390612531565b80601f016020809104026020016040519081016040528092919081815260200182805461119f90612531565b80156111ec5780601f106111c1576101008083540402835291602001916111ec565b820191906000526020600020905b8154815290600101906020018083116111cf57829003601f168201915b505050505081525050815260200160058201805461120990612531565b80601f016020809104026020016040519081016040528092919081815260200182805461123590612531565b80156112825780601f1061125757610100808354040283529160200191611282565b820191906000526020600020905b81548152906001019060200180831161126557829003601f168201915b5050505050815260200160068201805461129b90612531565b80601f01602080910402602001604051908101604052809291908181526020018280546112c790612531565b80156113145780601f106112e957610100808354040283529160200191611314565b820191906000526020600020905b8154815290600101906020018083116112f757829003601f168201915b50505050508152602001600782015481526020016008820154815260200160098201805461134190612531565b80601f016020809104026020016040519081016040528092919081815260200182805461136d90612531565b80156113ba5780601f1061138f576101008083540402835291602001916113ba565b820191906000526020600020905b81548152906001019060200180831161139d57829003601f168201915b5050505050815250509050600080600160008773ffffffffffffffffffffffffffffffffffffffff1673ffffffffffffffffffffffffffffffffffffffff168152602001908152602001600020876040516114159190612a15565b9081526020016040518091039020600501805461143190612531565b90501415905081819350935050509250929050565b6060600260008373ffffffffffffffffffffffffffffffffffffffff1673ffffffffffffffffffffffffffffffffffffffff168152602001908152602001600020805480602002602001604051908101604052809291908181526020016000905b8282101561192d57838290600052602060002090600a02016040518060e0016040529081600082016040518060600160405290816000820160009054906101000a900473ffffffffffffffffffffffffffffffffffffffff1673ffffffffffffffffffffffffffffffffffffffff1673ffffffffffffffffffffffffffffffffffffffff16815260200160018201805461154090612531565b80601f016020809104026020016040519081016040528092919081815260200182805461156c90612531565b80156115b95780601f1061158e576101008083540402835291602001916115b9565b820191906000526020600020905b81548152906001019060200180831161159c57829003601f168201915b505050505081526020016002820180546115d290612531565b80601f01602080910402602001604051908101604052809291908181526020018280546115fe90612531565b801561164b5780601f106116205761010080835404028352916020019161164b565b820191906000526020600020905b81548152906001019060200180831161162e57829003601f168201915b5050505050815250508152602001600382016040518060400160405290816000820160009054906101000a900473ffffffffffffffffffffffffffffffffffffffff1673ffffffffffffffffffffffffffffffffffffffff1673ffffffffffffffffffffffffffffffffffffffff1681526020016001820180546116ce90612531565b80601f01602080910402602001604051908101604052809291908181526020018280546116fa90612531565b80156117475780601f1061171c57610100808354040283529160200191611747565b820191906000526020600020905b81548152906001019060200180831161172a57829003601f168201915b505050505081525050815260200160058201805461176490612531565b80601f016020809104026020016040519081016040528092919081815260200182805461179090612531565b80156117dd5780601f106117b2576101008083540402835291602001916117dd565b820191906000526020600020905b8154815290600101906020018083116117c057829003601f168201915b505050505081526020016006820180546117f690612531565b80601f016020809104026020016040519081016040528092919081815260200182805461182290612531565b801561186f5780601f106118445761010080835404028352916020019161186f565b820191906000526020600020905b81548152906001019060200180831161185257829003601f168201915b50505050508152602001600782015481526020016008820154815260200160098201805461189c90612531565b80601f01602080910402602001604051908101604052809291908181526020018280546118c890612531565b80156119155780601f106118ea57610100808354040283529160200191611915565b820191906000526020600020905b8154815290600101906020018083116118f857829003601f168201915b505050505081525050815260200190600101906114a7565b505050509050919050565b6003602052806000526040600020600091509050805461195790612531565b80601f016020809104026020016040519081016040528092919081815260200182805461198390612531565b80156119d05780601f106119a5576101008083540402835291602001916119d0565b820191906000526020600020905b8154815290600101906020018083116119b357829003601f168201915b505050505081565b6040518060e001604052806119eb611a21565b81526020016119f8611a58565b815260200160608152602001606081526020016000815260200160008152602001606081525090565b6040518060600160405280600073ffffffffffffffffffffffffffffffffffffffff16815260200160608152602001606081525090565b6040518060400160405280600073ffffffffffffffffffffffffffffffffffffffff168152602001606081525090565b6000604051905090565b600080fd5b600080fd5b600073ffffffffffffffffffffffffffffffffffffffff82169050919050565b6000611ac782611a9c565b9050919050565b611ad781611abc565b8114611ae257600080fd5b50565b600081359050611af481611ace565b92915050565b600060208284031215611b1057611b0f611a92565b5b6000611b1e84828501611ae5565b91505092915050565b600080fd5b600080fd5b6000601f19601f8301169050919050565b7f4e487b7100000000000000000000000000000000000000000000000000000000600052604160045260246000fd5b611b7a82611b31565b810181811067ffffffffffffffff82111715611b9957611b98611b42565b5b80604052505050565b6000611bac611a88565b9050611bb88282611b71565b919050565b600067ffffffffffffffff821115611bd857611bd7611b42565b5b611be182611b31565b9050602081019050919050565b82818337600083830152505050565b6000611c10611c0b84611bbd565b611ba2565b905082815260208101848484011115611c2c57611c2b611b2c565b5b611c37848285611bee565b509392505050565b600082601f830112611c5457611c53611b27565b5b8135611c64848260208601611bfd565b91505092915050565b60008060408385031215611c8457611c83611a92565b5b6000611c9285828601611ae5565b925050602083013567ffffffffffffffff811115611cb357611cb2611a97565b5b611cbf85828601611c3f565b9150509250929050565b611cd281611abc565b82525050565b600081519050919050565b600082825260208201905092915050565b60005b83811015611d12578082015181840152602081019050611cf7565b60008484015250505050565b6000611d2982611cd8565b611d338185611ce3565b9350611d43818560208601611cf4565b611d4c81611b31565b840191505092915050565b6000606083016000830151611d6f6000860182611cc9565b5060208301518482036020860152611d878282611d1e565b91505060408301518482036040860152611da18282611d1e565b9150508091505092915050565b6000604083016000830151611dc66000860182611cc9565b5060208301518482036020860152611dde8282611d1e565b9150508091505092915050565b600082825260208201905092915050565b6000611e0782611cd8565b611e118185611deb565b9350611e21818560208601611cf4565b611e2a81611b31565b840191505092915050565b6000819050919050565b611e4881611e35565b82525050565b600060e0820190508181036000830152611e68818a611d57565b90508181036020830152611e7c8189611dae565b90508181036040830152611e908188611dfc565b90508181036060830152611ea48187611dfc565b9050611eb36080830186611e3f565b611ec060a0830185611e3f565b81810360c0830152611ed28184611dfc565b905098975050505050505050565b611ee981611e35565b8114611ef457600080fd5b50565b600081359050611f0681611ee0565b92915050565b600080600080600080600080610100898b031215611f2d57611f2c611a92565b5b6000611f3b8b828c01611ae5565b985050602089013567ffffffffffffffff811115611f5c57611f5b611a97565b5b611f688b828c01611c3f565b9750506040611f798b828c01611ef7565b965050606089013567ffffffffffffffff811115611f9a57611f99611a97565b5b611fa68b828c01611c3f565b955050608089013567ffffffffffffffff811115611fc757611fc6611a97565b5b611fd38b828c01611c3f565b94505060a089013567ffffffffffffffff811115611ff457611ff3611a97565b5b6120008b828c01611c3f565b93505060c089013567ffffffffffffffff81111561202157612020611a97565b5b61202d8b828c01611c3f565b92505060e089013567ffffffffffffffff81111561204e5761204d611a97565b5b61205a8b828c01611c3f565b9150509295985092959890939650565b6000806040838503121561208157612080611a92565b5b600083013567ffffffffffffffff81111561209f5761209e611a97565b5b6120ab85828601611c3f565b92505060206120bc85828601611ae5565b9150509250929050565b60006060830160008301516120de6000860182611cc9565b50602083015184820360208601526120f68282611d1e565b915050604083015184820360408601526121108282611d1e565b9150508091505092915050565b60006040830160008301516121356000860182611cc9565b506020830151848203602086015261214d8282611d1e565b9150508091505092915050565b61216381611e35565b82525050565b600060e083016000830151848203600086015261218682826120c6565b915050602083015184820360208601526121a0828261211d565b915050604083015184820360408601526121ba8282611d1e565b915050606083015184820360608601526121d48282611d1e565b91505060808301516121e9608086018261215a565b5060a08301516121fc60a086018261215a565b5060c083015184820360c08601526122148282611d1e565b9150508091505092915050565b60008115159050919050565b61223681612221565b82525050565b600060408201905081810360008301526122568185612169565b9050612265602083018461222d565b9392505050565b600081519050919050565b600082825260208201905092915050565b6000819050602082019050919050565b600060e08301600083015184820360008601526122b582826120c6565b915050602083015184820360208601526122cf828261211d565b915050604083015184820360408601526122e98282611d1e565b915050606083015184820360608601526123038282611d1e565b9150506080830151612318608086018261215a565b5060a083015161232b60a086018261215a565b5060c083015184820360c08601526123438282611d1e565b9150508091505092915050565b600061235c8383612298565b905092915050565b6000602082019050919050565b600061237c8261226c565b6123868185612277565b93508360208202850161239885612288565b8060005b858110156123d457848403895281516123b58582612350565b94506123c083612364565b925060208a0199505060018101905061239c565b50829750879550505050505092915050565b600060208201905081810360008301526124008184612371565b905092915050565b600060208201905081810360008301526124228184611dfc565b905092915050565b7f596f752063616e27742061646420697373756572000000000000000000000000600082015250565b6000612460601483611deb565b915061246b8261242a565b602082019050919050565b6000602082019050818103600083015261248f81612453565b9050919050565b600081905092915050565b7f6973737565720000000000000000000000000000000000000000000000000000600082015250565b60006124d7600683612496565b91506124e2826124a1565b600682019050919050565b60006124f8826124ca565b9150819050919050565b7f4e487b7100000000000000000000000000000000000000000000000000000000600052602260045260246000fd5b6000600282049050600182168061254957607f821691505b60208210810361255c5761255b612502565b5b50919050565b60008190508160005260206000209050919050565b6000815461258481612531565b61258e8186612496565b945060018216600081146125a957600181146125be576125f1565b60ff19831686528115158202860193506125f1565b6125c785612562565b60005b838110156125e9578154818901526001820191506020810190506125ca565b838801955050505b50505092915050565b60006126068284612577565b915081905092915050565b7f69737375657220697320616c72656164792070726573656e7400000000000000600082015250565b6000612647601983611deb565b915061265282612611565b602082019050919050565b600060208201905081810360008301526126768161263a565b9050919050565b60006020601f8301049050919050565b600082821b905092915050565b6000600883026126ca7fffffffffffffffffffffffffffffffffffffffffffffffffffffffffffffffff8261268d565b6126d4868361268d565b95508019841693508086168417925050509392505050565b6000819050919050565b600061271161270c61270784611e35565b6126ec565b611e35565b9050919050565b6000819050919050565b61272b836126f6565b61273f61273782612718565b84845461269a565b825550505050565b600090565b612754612747565b61275f818484612722565b505050565b5b818110156127835761277860008261274c565b600181019050612765565b5050565b601f8211156127c85761279981612562565b6127a28461267d565b810160208510156127b1578190505b6127c56127bd8561267d565b830182612764565b50505b505050565b600082821c905092915050565b60006127eb600019846008026127cd565b1980831691505092915050565b600061280483836127da565b9150826002028217905092915050565b61281d82611cd8565b67ffffffffffffffff81111561283657612835611b42565b5b6128408254612531565b61284b828285612787565b600060209050601f83116001811461287e576000841561286c578287015190505b61287685826127f8565b8655506128de565b601f19841661288c86612562565b60005b828110156128b45784890151825560018201915060208501945060208101905061288f565b868310156128d157848901516128cd601f8916826127da565b8355505b6001600288020188555050505b505050505050565b7f54686520706572736f6e206973206e6f74206973737565720000000000000000600082015250565b600061291c601883611deb565b9150612927826128e6565b602082019050919050565b6000602082019050818103600083015261294b8161290f565b9050919050565b7f596f752063616e2774206365727469667920746865206365727469666963617460008201527f6500000000000000000000000000000000000000000000000000000000000000602082015250565b60006129ae602183611deb565b91506129b982612952565b604082019050919050565b600060208201905081810360008301526129dd816129a1565b9050919050565b60006129ef82611cd8565b6129f98185612496565b9350612a09818560208601611cf4565b80840191505092915050565b6000612a2182846129e4565b915081905092915050565b612a3581611abc565b82525050565b600060a082019050612a506000830188612a2c565b8181036020830152612a628187611dfc565b9050612a716040830186611e3f565b612a7e6060830185611e3f565b8181036080830152612a908184611dfc565b9050969550505050505056fea2646970667358221220bac0528a25eae8fe7cd26c6564905b9aff2ae0ed65b2401d16e6c85f4d30203a64736f6c63430008120033",
  "immutableReferences": {},
  "source": "// SPDX-License-Identifier: MIT\n\npragma solidity >=0.5.0 <0.9.0;\n\ncontract verifyCertificate {\n    event FileCertified(\n        address author,\n        string fileHash,\n        uint256 timestamp,\n        uint256 fileSize,\n        string fileExtension\n    );\n\n    // contract deployer (application owner)\n    address owner;\n\n    // declate a structured data that describes issuer\n    struct CertificateIssuerStructure {\n        address issuer_address;\n        string issuer_institution;\n        string issuer_name;\n    }\n\n    // structure describing candidate\n    struct CandidateStructure {\n        address candidate_address;\n        string candidate_name;\n    }\n\n    //structure describing file certificate\n    struct FileCertificate {\n        CertificateIssuerStructure issuer;\n        CandidateStructure candidate;\n        string fileHash;\n        string fileName;\n        uint256 timestamp;\n        uint256 fileSize;\n        string fileExtension;\n    }\n\n    //mapping the file certificates by hash \n    mapping(address => mapping(string => FileCertificate)) public fileCertificatesMap;\n    mapping (address => FileCertificate[]) userCertificate;\n\n    mapping(address => string) public user_roles;\n\n    // mapping (address => string) holder_certificate;\n\n    constructor() {\n        user_roles[msg.sender] = \"admin\";\n        owner = msg.sender;\n    }\n\n    function getCertificates(address candidate_address) public view returns(FileCertificate[] memory){\n        return userCertificate[candidate_address];\n    }\n\n    function addIssuer(address issuer_address) public {\n        // check if the person is owner\n        require(msg.sender == owner, \"You can't add issuer\");\n        // check if the issuer is already present\n        require(\n            keccak256(abi.encodePacked(user_roles[issuer_address])) !=\n                keccak256(abi.encodePacked(\"issuer\")),\n            \"issuer is already present\"\n        );\n\n        user_roles[issuer_address] = \"issuer\";\n    }\n\n    function removeIssuer(address issuer_address) public {\n        // check if the person is owner\n        require(msg.sender == owner, \"You can't add issuer\");\n        // check if the issuer is already present\n        require(\n            keccak256(abi.encodePacked(user_roles[issuer_address])) ==\n                keccak256(abi.encodePacked(\"issuer\")),\n            \"The person is not issuer\"\n        );\n\n        user_roles[issuer_address] = \"user\";\n    }\n\n    //function to certify the file\n    //function that allows issuer to certify a file\n    function certifyFile(\n        address candidate_address,\n        string memory candidate_name,\n        uint256 fileSize,\n        string memory issuer_institution,\n        string memory issuer_name,\n        string memory fileHash,\n        string memory fileName,\n        string memory fileExtension\n    ) public payable {\n        // check if the person is issuer\n        require(\n            keccak256(abi.encodePacked(user_roles[msg.sender])) ==\n                keccak256(abi.encodePacked(\"issuer\")),\n            \"You can't certify the certificate\"\n        );\n\n        CandidateStructure memory candidate = CandidateStructure(\n            candidate_address,\n            candidate_name\n        );\n        CertificateIssuerStructure memory issuer = CertificateIssuerStructure(\n            msg.sender,\n            issuer_name,\n            issuer_institution\n        );\n        FileCertificate memory newFileCertificate = FileCertificate(\n            issuer,\n            candidate,\n            fileHash,\n            fileName,\n            block.timestamp,\n            fileSize,\n            fileExtension\n        );\n        fileCertificatesMap[candidate_address][fileHash] = newFileCertificate;\n        userCertificate[candidate_address].push(newFileCertificate);\n        emit FileCertified(\n            msg.sender,\n            fileHash,\n            block.timestamp,\n            fileSize,\n            fileExtension\n        );\n    }\n\n    //function that allows users to verify if a file has been certified before\n    function verifyFile(string memory fileHash, address candidate_address)\n        public\n        view\n        returns (FileCertificate memory, bool)\n    {\n        FileCertificate memory fileCertificate = fileCertificatesMap[\n            candidate_address\n        ][fileHash];\n        // return's false of certificate is not verified else\n        bool exists = (bytes(\n            fileCertificatesMap[candidate_address][fileHash].fileHash\n        ).length != 0);\n        return (fileCertificate, exists);\n    }\n\n    // create a function for current user to get the list of his files\n    // function getFilesOfCandidate( address candidate_address) public view returns()\n}\n",
  "sourcePath": "/Users/amitsamui/Desktop/Projects/Blockchain project 1/parikshan-frontend-app/truffle/contracts/SimpleStorage.sol",
  "compiler": {
    "name": "solc",
    "version": "0.8.18+commit.87f61d96.Emscripten.clang"
  },
  "schemaVersion": "3.4.14",
  "updatedAt": "2023-07-22T16:26:41.196Z",
  "devdoc": {
    "kind": "dev",
    "methods": {},
    "version": 1
  },
  "userdoc": {
    "kind": "user",
    "methods": {},
    "version": 1
  }
}